:100000000C943E000C945B000C945B000C945B0021
:100010000C945B000C945B000C945B000C945B00F4
:100020000C945B000C945B000C945B000C945B00E4
:100030000C945B000C949E030C945B000C945B008E
:100040000C947A030C945B000C945B000C945B00A2
:100050000C94EF030C945B000C945B000C945B001D
:100060000C945B000C945B000C945B000C945B00A4
:100070000C945B000C945B000C945B0011241FBE7D
:10008000CFEFD8E0DEBFCDBF11E0A0E0B1E0E6E009
:10009000FDE002C005900D92AC31B107D9F721E027
:1000A000ACE1B1E001C01D92A139B207E1F70E94B5
:1000B000EB040C9481060C94000098B1282F207F4B
:1000C0009F70922B98B94398429AE7EEF3E03197EC
:1000D000F1F700C000004298E7EEF3E03197F1F746
:1000E00000C0000028B12F70F0E18F9FC0011124E3
:1000F000822B88B9429A87EE93E00197F1F700C00E
:1001000000004298E7EEF3E03197F1F700C00000FD
:100110008FE097E20197F1F700C00000089582E0B8
:100120000E945D0088E20E945D0081E00E945D0007
:100130008CE00E945D00EAE2F1E02AE431E080E236
:100140008193E217F307E1F7E4E2F1E01082118214
:100150001282138210922801109229010895809131
:100160001D01982F9295969597709370E82FEF71D7
:100170008E2F91119BC02E2F27709E2F9871492F83
:1001800050E0559547955595479555954795FA01F2
:10019000EC5DFE4F30816FEF70E0022E02C0660F03
:1001A000771F0A94E2F76323C1F091E001C0990F31
:1001B0002A95EAF74091290153E604C08F5F990F11
:1001C00009F4452F911103C0409329013BC0292F09
:1001D0002323A1F34093290135C0892F94E017C050
:1001E0002F5F3F4F2430310514F44F5F01C040E0D2
:1001F000282F30E0285F3F4F2032310514F088511E
:1002000001C0885F913009F403C1915041F0242F5F
:1002100030E0F901EC5DFE4F5081552309F3E42FE6
:10022000F0E0EC5DFE4F30814091290191E005C086
:10023000990F8F5F992309F4E7C0292F2323C1F376
:1002400040932901982F9F70A1F090911E019695DF
:100250009F7189130EC0EDE1F1E090819F7790834B
:10026000E82FF0E0E65DFE4F908190931C01439AE9
:1002700011C0EDE1F1E0908190689083982F90712A
:10028000292F220F220F982F9F709068922B909306
:100290001C014398EEE1F1E020812160208328B128
:1002A000907F2F70922B98B991E0A0C0913019F4F3
:1002B000429A92E09BC0923061F4429890911D0165
:1002C00099230CF490C090911E0190FD8EC090E097
:1002D0008DC0933009F083C020911D0122238CF53D
:1002E00090911E0190FF15C0AEE1B1E0292F2E7F45
:1002F0002C9398B130911C0160E1369FA00111242C
:100300009F70492B48B9EE0F217C2E2B2C9391E046
:100310006DC0439AADE1B1E09C919F779C93AEE1B3
:10032000B1E09C9191609C93F0E0E65DFE4F2081EE
:1003300020931C0198B1207F9F70922B98B991E077
:1003400055C090911E0190FF45C0AEE1B1E09E7F87
:100350009C9340911C0198B19F7050E1459F900182
:100360001124292B28B9AE2FB0E0A65DBE4F9C9179
:10037000491318C0AE2FA871B0E0B595A795B595F3
:10038000A795B595A795AC5DBE4F9E2F977021E0C0
:1003900030E002C0220F331F9A95E2F720959C911E
:1003A00029232C9390911E0196959F71292F30E05F
:1003B0002F5F3F4F2032310514F49F5F01C090E062
:1003C000EEE1F1E09F71990F2081217C922B9083C7
:1003D00091E00CC093E69093290191E007C023E6D9
:1003E0002093290103C093E001C093E0EDE1F1E027
:1003F0009370292F2295220F207E908190788F7103
:10040000922B982B9083089593E6909329011ACF0D
:100410000895813220F08AE0809329010895282FE1
:1004200030E0F901E65DFE4F90819617E1F0F901A9
:10043000E65DFE4F6083E82FE871F0E0F595E79503
:10044000F595E795F595E795EC5DFE4F877021E012
:1004500030E0A90102C0440F551F8A95E2F7CA0196
:100460009081892B80830895EF92FF920F931F93C1
:10047000CF93DF93FB013097E9F0E82EF12C91E266
:10048000E916F104BCF460816623A1F08F01D82F36
:10049000C0E08D2F8C0F0E940902CF5F97012C0FB7
:1004A000311D2132310534F4F801EC0FF11D60816A
:1004B0006111EFCFDF91CF911F910F91FF90EF90DE
:1004C00008957F928F929F92AF92BF92CF92DF92C8
:1004D000EF92FF920F931F93CF93DF9300D000D042
:1004E00000D0CDB7DEB7082FCB019E012F5F3F4F65
:1004F0004901B9010E94BE02782EA82EB12C6501D7
:1005000035E0C31AD108C80CD91C740110E0A81832
:10051000B9088091280180FF05C0171558F4F7012C
:1005200060810BC0C5018E0D9F1D05972CF0F60153
:10053000608103C060E201C060E2802F810F0E94F1
:1005400009021F5FFFEFEF1AFF0A2FEFC21AD20A4C
:100550001530F9F626960FB6F894DEBF0FBECDBF64
:10056000DF91CF911F910F91FF90EF90DF90CF908F
:10057000BF90AF909F908F907F900895BF92CF9241
:10058000DF92EF92FF920F931F93CF93DF93CDB73C
:10059000DEB72A970FB6F894DEBF0FBECDBF7C0141
:1005A0006B018AE0E1E0F1E0DE01119601900D922D
:1005B0008A95E1F78E010F5F1F4F81E030E020E068
:1005C0000F2EF0E3BF2EF02D40E0D801ED91FD910C
:1005D0008D01EE16FF06A0F0C701BF010E9459066B
:1005E000D601A30FB11D80E3860F8C936E9FC001CF
:1005F0006F9F900D1124E81AF90A3F5F842F09C0FC
:10060000813011F4243029F4F601E30FF11DB0829A
:100610003F5F2F5F2530C9F6F601E30FF11D108211
:10062000832F2A960FB6F894DEBF0FBECDBFDF91A1
:10063000CF911F910F91FF90EF90DF90CF90BF90DF
:1006400008951092C00088E98093C10086E08093ED
:10065000C2001092C50084E08093C400089582E037
:1006600084BD85BD80936E0089EF87BD18BC089559
:100670008FEF9FEF909389008093880010928B00FA
:1006800010928A00109287001092860010928000CB
:1006900088E0809381001092820082E080936F0056
:1006A000089512B88FEF81B985B914B893E098B95D
:1006B00087B98BEF8BB986E08AB90E9421030E942B
:1006C0002F030E9438032FE382E49FE021508040F3
:1006D0009040E1F700C0000041982FE382E49FE0E2
:1006E000215080409040E1F700C000000E948F0040
:1006F000789408951F920F920FB60F9211248F9342
:100700009F9380914F01816080934F0180911F01E1
:10071000811106C090914F01926090934F0102C0E9
:10072000873C11F08F5F01C080E080931F019F9193
:100730008F910F900FBE0F901F9018951F920F92E0
:100740000FB60F9211242F933F934F935F936F93A4
:100750007F938F939F93AF93BF93CF93EF93FF9329
:10076000C0910001C73010F522B181E090E00C2E5D
:1007700002C0880F991F0A94E2F78095822382B9FC
:10078000CF5FC73098F422B181E090E00C2E02C018
:10079000880F991F0A94E2F7822B82B98C2F0E944E
:1007A0007604909389008093880005C0E1E8F0E02A
:1007B00080818E7F8083C0930001FF91EF91CF9164
:1007C000BF91AF919F918F917F916F915F914F9169
:1007D0003F912F910F900FBE0F901F9018951F9271
:1007E0000F920FB60F9211242F933F934F938F9335
:1007F0009F93AF93BF93EF93FF934091C600809177
:10080000900180FD44C0E0E9F1E080818160808357
:10081000EBE8F1E092818181981730F082812181AB
:1008200090E0821B91090AC0EBE8F1E030818281FF
:10083000218190E0830F911D821B910920918B01F2
:1008400030E02150310982179307E4F4EBE8F1E03E
:10085000A381B4818281A80FB11D4C932281808134
:1008600030E090E001972817390724F482818F5FE8
:10087000828302C010928D01E0E9F1E080818E7FD9
:10088000808305C0E0E9F1E080818E7F8083FF9165
:10089000EF91BF91AF919F918F914F913F912F9188
:1008A0000F900FBE0F901F90189585E08093580110
:1008B0008091200181110BC0E6E7F1E080818F5F1C
:1008C00080838A306CF081E08093200109C0E6E7E4
:1008D000F1E0808181508083873F14F410922001E1
:1008E000E6E7F1E08081818380E00895CF93DF9394
:1008F000282F30E0F901E159FE4F9081F901EA58C3
:10090000FE4F4081042E000C550B490F511D97FDE1
:100910005A959EE8949FE001959FD00D1124E1E047
:10092000F0E002C0EE0FFF1F8A95E2F7CF01827060
:100930009927E817F90719F4D195C195D109C05D38
:10094000DA48D901A85ABE4F8C914EE8849FC00165
:10095000112462E370E00E946D06683782E0780738
:1009600014F067E772E0D901AA0FBB1FA358BE4F6E
:100970008D919C91AE01481B590B6417750754F477
:10098000E09540912301E423E0932301EB01C80F9C
:10099000D91F16C0AA27BB27A61BB70B4A175B0790
:1009A00054F4E09540912301E423E0932301EC010A
:1009B000C61BD70B05C080912301E82BE0932301D0
:1009C000220F331FF901E358FE4FD183C083CE01BC
:1009D000DF91CF910895EBE8F1E08FE591E094830A
:1009E000838380E18083EAE4F1E080E591E0948311
:1009F000838388E08083EFE6F1E08DE791E0C6E74E
:100A0000D1E008E511E066E771E040E355E720E555
:100A10001192DC014D935D93CD011992D8012D9374
:100A20008D01E617F707A1F70E9451036BE071E013
:100A300080E00E94340265E171E080E10E943402AE
:100A4000412C0F2EF8E8AF2EB12CF02D0F2EF1E82F
:100A5000CF2ED12CF02DCAE4D1E00F2EFAE53F2E97
:100A6000F02D552453940F2EFBE88F2EF1E09F2E8E
:100A7000F02D0F2EF0ECEF2EF12CF02D0F2EF6ECCA
:100A80006F2E712CF02D00E911E080914F0180FF55
:100A900007C080914F018E7F80934F010E94AF006D
:100AA00080914F0181FF2BC080914F018D7F8093FA
:100AB0004F011092000180E00E947604F5019183BD
:100AC0008083D6018C9181608C93109A6091210172
:100AD000709122016F5F7F4F70932201609321011B
:100AE00086E10E946102B4E14B1619F04394411073
:100AF00006C080914F01846080934F01412C80910A
:100B00004F0182FFC2CF80914F018B7F80934F01B5
:100B10008A81EB81FC81E80FF11D30822A81422F0E
:100B200050E0888190E00197481759071CF42F5F27
:100B30002A8301C01A8288B1852588B90E9455048C
:100B4000F40192818181981758F08281218190E08F
:100B5000821B9109252D181619067CF020E00DC086
:100B600030818281218190E0830F911D821B910948
:100B7000252D181619060CF020E0222309F466C072
:100B8000D4011396ED91FC91149711968C911197C5
:100B9000E80FF11D8081F801908191FD44C09081A2
:100BA0009260908312962C91129711969C911197B6
:100BB000291770F012962C91129711969C9130E0A3
:100BC000291B3109952D121613069CF090E011C0D7
:100BD000D4014C9112962C91129711969C9130E071
:100BE000240F311D291B3109952D121613060CF007
:100BF00090E09923A1F0F4014181208150E030E0A0
:100C0000215031094217530724F491819F5F91834A
:100C100001C01182F80190819D7F908304C0D801AA
:100C20009C919D7F9C939A81EB81FC81E90FF11D42
:100C300080832A81422F50E0888190E001974817F5
:100C400059071CF42F5F2A8301C01A82F7018081A3
:100C500085FF1BCF8A812981821748F090E0821B93
:100C60009109352D181619066CF030E00BC038814B
:100C700090E0830F911D821B9109352D18161906DE
:100C80000CF030E0332309F400CF422F50E0EB8129
:100C9000FC81E40FF51F3081888190E001974817AF
:100CA00059071CF42F5F298301C01982D3013C939B
:100CB000ECCEAA1BBB1B51E107C0AA1FBB1FA61786
:100CC000B70710F0A61BB70B881F991F5A95A9F7F5
:100CD00080959095BC01CD01089597FB072E16F4E1
:100CE000009407D077FD09D00E94590607FC05D073
:100CF0003EF4909581959F4F0895709561957F4F33
:060D00000895F894FFCFF6
:100D0600071027E80364000A000100556E69742085
:0C0D16005A65726F0054696D653A000068
:00000001FF
