S0100000556E69745A65726F2E73726563D4
S11300000C944C000C9469000C9469000C946900E5
S11300100C9469000C9469000C9469000C946900B8
S11300200C9469000C9469000C9469000C946900A8
S11300300C9469000C94AC030C9469000C94690052
S11300400C9488030C9469000C9469000C94690066
S11300500C94FD030C9469000C9469000C946900E1
S11300600C9469000C9469000C9469000C94690068
S11300700C9469000C9469000C946900A705AF0501
S1130080BB05C505DA05E405F405000614062006DB
S1130090A2052D063906490611241FBECFEFD8E06C
S11300A0DEBFCDBF11E0A0E0B1E0ECE6FEE002C0AF
S11300B005900D92AC31B107D9F721E0ACE1B1E084
S11300C001C01D92A039B207E1F70E94D8040C9434
S11300D034070C94000098B1282F207F9F70922B36
S11300E098B94398429AE7EEF3E03197F1F700C0EC
S11300F000004298E7EEF3E03197F1F700C000000A
S113010028B12F70F0E18F9FC0011124822B88B990
S1130110429A87EE93E00197F1F700C000004298FD
S1130120E7EEF3E03197F1F700C000008FE097E2CB
S11301300197F1F700C00000089582E00E946B006F
S113014088E20E946B0081E00E946B008CE00E94B8
S11301506B00E9E2F1E029E431E080E28193E21707
S1130160F307E1F7E3E2F1E01082118212821382D5
S11301701092270110922801089580911D01982F53
S11301809295969597709370E82FEF718E2F911139
S11301909BC02E2F27709E2F9871492F50E05595A4
S11301A047955595479555954795FA01ED5DFE4F51
S11301B030816FEF70E0022E02C0660F771F0A9441
S11301C0E2F76323C1F091E001C0990F2A95EAF7A1
S11301D04091280153E604C08F5F990F09F4452F1D
S11301E0911103C0409328013BC0292F2323A1F37D
S11301F04093280135C0892F94E017C02F5F3F4FEB
S11302002430310514F44F5F01C040E0282F30E062
S1130210285F3F4F2032310514F0885101C0885FB8
S1130220913009F403C1915041F0242F30E0F901D9
S1130230ED5DFE4F5081552309F3E42FF0E0ED5DB1
S1130240FE4F30814091280191E005C0990F8F5FE6
S1130250992309F4E7C0292F2323C1F340932801EC
S1130260982F9F70A1F090911E0196959F7189130C
S11302700EC0EDE1F1E090819F779083E82FF0E0EC
S1130280E75DFE4F908190931C01439A11C0EDE10C
S1130290F1E0908190689083982F9071292F220F1C
S11302A0220F982F9F709068922B90931C01439873
S11302B0EEE1F1E020812160208328B1907F2F704E
S11302C0922B98B991E0A0C0913019F4429A92E02F
S11302D09BC0923061F4429890911D0199230CF4D3
S11302E090C090911E0190FD8EC090E08DC093301F
S11302F009F083C020911D0122238CF590911E01E9
S113030090FF15C0AEE1B1E0292F2E7F2C9398B158
S113031030911C0160E1369FA00111249F70492B8C
S113032048B9EE0F217C2E2B2C9391E06DC0439A9B
S1130330ADE1B1E09C919F779C93AEE1B1E09C91DB
S113034091609C93F0E0E75DFE4F208120931C01B7
S113035098B1207F9F70922B98B991E055C09091ED
S11303601E0190FF45C0AEE1B1E09E7F9C93409199
S11303701C0198B19F7050E1459F90011124292BD5
S113038028B9AE2FB0E0A75DBE4F9C91491318C0A9
S1130390AE2FA871B0E0B595A795B595A795B5957D
S11303A0A795AD5DBE4F9E2F977021E030E002C04F
S11303B0220F331F9A95E2F720959C9129232C93C1
S11303C090911E0196959F71292F30E02F5F3F4F2A
S11303D02032310514F49F5F01C090E0EEE1F1E0BA
S11303E09F71990F2081217C922B908391E00CC006
S11303F093E69093280191E007C023E62093280117
S113040003C093E001C093E0EDE1F1E09370292F84
S11304102295220F207E908190788F71922B982BB9
S11304209083089593E6909328011ACF089581321A
S113043020F08AE0809328010895282F30E0F90104
S1130440E75DFE4F90819617E1F0F901E75DFE4FFD
S11304506083E82FE871F0E0F595E795F595E79569
S1130460F595E795ED5DFE4F877021E030E0A90139
S113047002C0440F551F8A95E2F7CA019081892B67
S113048080830895EF92FF920F931F93CF93DF938E
S1130490FB013097E9F0E82EF12C91E2E916F10422
S11304A0BCF460816623A1F08F01D82FC0E08D2FAA
S11304B08C0F0E941702CF5F97012C0F311D213240
S11304C0310534F4F801EC0FF11D60816111EFCFB7
S11304D0DF91CF911F910F91FF90EF9008957F923C
S11304E08F929F92AF92BF92CF92DF92EF92FF9240
S11304F00F931F93CF93DF9300D000D000D0CDB7DC
S1130500DEB7082FCB019E012F5F3F4F4901B90190
S11305100E94CC02782EA82EB12C650135E0C31AB6
S1130520D108C80CD91C740110E0A818B90880912E
S1130530270180FF05C0171558F4F70160810BC02F
S1130540C5018E0D9F1D05972CF0F601608103C037
S113055060E201C060E2802F810F0E9417021F5FDA
S1130560FFEFEF1AFF0A2FEFC21AD20A1530F9F67D
S113057026960FB6F894DEBF0FBECDBFDF91CF91A4
S11305801F910F91FF90EF90DF90CF90BF90AF90AD
S11305909F908F907F900895BF92CF92DF92EF92B9
S11305A0FF920F931F93CF93DF93CDB7DEB72A97B4
S11305B00FB6F894DEBF0FBECDBF7C016B018AE09D
S11305C0E1E0F1E0DE01119601900D928A95E1F7E8
S11305D08E010F5F1F4F81E030E020E00F2EF0E32B
S11305E0BF2EF02D40E0D801ED91FD918D01EE1666
S11305F0FF06A0F0C701BF010E940607D601A30FA2
S1130600B11D80E3860F8C936E9FC0016F9F900D88
S11306101124E81AF90A3F5F842F09C0813011F4CC
S1130620243029F4F601E30FF11DB0823F5F2F5F00
S11306302530C9F6F601E30FF11D1082832F2A96A7
S11306400FB6F894DEBF0FBECDBFDF91CF911F91DF
S11306500F91FF90EF90DF90CF90BF90089510928C
S1130660C00088E98093C10086E08093C2001092A4
S1130670C50084E08093C400089582E084BD85BDF4
S113068080936E0089EF87BD18BC08958FEF9FEFAC
S1130690909389008093880010928B0010928A00B6
S11306A010928700109286001092800088E0809358
S11306B081001092820082E080936F00089512B846
S11306C08FEF81B985B914B893E098B987B98BEFE6
S11306D08BB986E08AB90E942F030E943D030E94D1
S11306E046032FE382E49FE0215080409040E1F7ED
S11306F000C0000041982FE382E49FE02150804035
S11307009040E1F700C000000E949D007894089595
S11307101F920F920FB60F9211248F939F93809183
S11307204E01816080934E0180911F01811106C0AA
S113073090914E01926090934E0102C0873C11F05B
S11307408F5F01C080E080931F019F918F910F9074
S11307500FBE0F901F9018951F920F920FB60F9215
S113076011242F933F934F935F936F937F938F93B2
S11307709F93AF93BF93CF93EF93FF93C0910001E7
S1130780C73010F522B181E090E00C2E02C0880F32
S1130790991F0A94E2F78095822382B9CF5FC7300C
S11307A098F422B181E090E00C2E02C0880F991FCA
S11307B00A94E2F7822B82B98C2F0E9463049093EF
S11307C089008093880005C0E1E8F0E080818E7F95
S11307D08083C0930001FF91EF91CF91BF91AF91BE
S11307E09F918F917F916F915F914F913F912F9145
S11307F00F900FBE0F901F9018951F920F920FB677
S11308000F9211242F933F934F938F939F93AF9302
S1130810BF93EF93FF934091C60080918F0180FDB9
S113082044C0EFE8F1E0808181608083EAE8F1E090
S113083092818181981730F08281218190E0821B1E
S113084091090AC0EAE8F1E030818281218190E0D7
S1130850830F911D821B910920918A0130E0215060
S1130860310982179307E4F4EAE8F1E0A381B48143
S11308708281A80FB11D4C932281808130E090E0E9
S113088001972817390724F482818F5F828302C07D
S113089010928C01EFE8F1E080818E7F808305C0A7
S11308A0EFE8F1E080818E7F8083FF91EF91BF912B
S11308B0AF919F918F914F913F912F910F900FBEC8
S11308C00F901F901895CF93DF93282F30E0F901F4
S11308D0E259FE4F9081F901EB58FE4F4081042EFE
S11308E0000C550B490F511D97FD5A959EE8949F96
S11308F0E001959FD00D1124E1E0F0E002C0EE0F7D
S1130900FF1F8A95E2F7CF0186779927E817F90741
S113091019F4D195C195D109C05DDA48D901A95A14
S1130920BE4F8C914EE8849FC001112462E370E0B5
S11309300E941A07683782E0780714F067E772E0CC
S1130940D901AA0FBB1FA458BE4F8D919C91AE0133
S1130950481B590B6417750754F4E0954091220124
S1130960E423E0932201EB01C80FD91F16C0AA2784
S1130970BB27A61BB70B4A175B0754F4E0954091BD
S11309802201E423E0932201EC01C61BD70B05C02E
S113099080912201E82BE0932201220F331FF901F9
S11309A0E458FE4FD183C083CE01DF91CF910895E7
S11309B0EAE8F1E08EE591E09483838380E180832B
S11309C0E9E4F1E08FE491E09483838388E0808319
S11309D0EEE6F1E08EE0808388E1818384E0828327
S11309E08BEF838314828CE085831682ECE7F1E03D
S11309F0C7E5D1E04AE851E0A5E7B1E020E335E7F7
S1130A0080E5219331931D9289934E175F07C9F7AF
S1130A100E945F036BE071E080E00E94420265E1A6
S1130A2071E080E10E944202512C312C0F2EF1E83A
S1130A30AF2EB12CF02DC9E4D1E00F2EFAE52F2E04
S1130A40F02D442443940AE811E00F2EF0ECCF2E4D
S1130A50D12CF02D0F2EFFE8EF2EF1E0FF2EF02D1C
S1130A600F2EF5E78F2EF1E09F2EF02D0F2EFCE7D1
S1130A706F2EF1E07F2EF02D80914E0180FF07C094
S1130A8080914E018E7F80934E010E94BD00809123
S1130A904E0181FF2DC080914E018D7F80934E01C8
S1130AA01092000180E00E946304A8E8B0E011966F
S1130AB09C938E93F501808181608083109A60916C
S1130AC02001709121016F5F7F4F7093210160932A
S1130AD0200186E10E946F02F4E13F1619F033947D
S1130AE0311006C080914E01846080934E01312CF8
S1130AF080914E0182FFC0CF80914E018B7F809305
S1130B004E018A81EB81FC81E80FF11D20824A812C
S1130B10242F30E0888190E00197281739071CF4CE
S1130B204F5F4A8301C01A8288B1842588B9852D14
S1130B3090E08E30910508F0A9C0FC01E25CFF4F03
S1130B400C942E070F2EFBE05F2EF02DA5C0E5E7D9
S1130B50F1E011926E167F06E1F7542C9DC08CE3F0
S1130B60D40114968C93149784EC15968C93689402
S1130B70552451F891C084ECF40184838CE385837B
S1130B800F2EF3E05F2EF02D87C0D40114961C9233
S1130B90149715961C92159788E28C9311968C9352
S1130BA0119712968C93129713968C9368945524EC
S1130BB052F872C0F40110821182128213820F2E35
S1130BC0F5E05F2EF02D68C088E2D4018C93119675
S1130BD08C93119712968C93129713968C930F2ED5
S1130BE0F6E05F2EF02D58C0F401148215821082B5
S1130BF01182128213820F2EF7E05F2EF02D4CC06B
S1130C00D4011C9211961C92119712961C92129761
S1130C1013961C92139714961C92149715961C9273
S1130C206894552453F838C088E2F40180839AE02C
S1130C309183928383830F2EF9E05F2EF02D2CC0D5
S1130C408CE3D40114968C93149784EC15968C93AE
S1130C500F2EFAE05F2EF02D1FC08AE0F40180838E
S1130C6098E29183928383830F2EFCE05F2EF02D14
S1130C7013C084ECD40114968C9314978CE31596CA
S1130C808C930F2EFDE05F2EF02D06C055245A9450
S1130C9003C06894552453F8F80192818181981710
S1130CA058F08281218190E0821B9109242D18162D
S1130CB019067CF020E00DC030818281218190E012
S1130CC0830F911D821B9109242D181619060CF00F
S1130CD020E0222309F466C0D8011396ED91FC911B
S1130CE0149711968C911197E80FF11D8081F701EB
S1130CF0908191FD44C090819260908312962C91D2
S1130D00129711969C911197291770F012962C91B5
S1130D10129711969C9130E0291B3109942D1216DB
S1130D2013069CF090E011C0D8014C9112962C91BE
S1130D30129711969C9130E0240F311D291B310923
S1130D40942D121613060CF090E09923A1F0F801EB
S1130D504181208150E030E021503109421753078E
S1130D6024F491819F5F918301C01182F7019081E6
S1130D709D7F908304C0D7019C919D7F9C939A8111
S1130D80EB81FC81E90FF11D80834A81242F30E03F
S1130D90888190E00197281739071CF44F5F4A8334
S1130DA001C01A82F601808185FF66CE8A8129817D
S1130DB0821748F090E0821B9109342D1816190609
S1130DC06CF030E00BC0388190E0830F911D821BE2
S1130DD09109342D181619060CF030E0332309F468
S1130DE04BCE422F50E0EB81FC81E40FF51F3081A4
S1130DF0888190E00197481759071CF42F5F2983D5
S1130E0001C01982A6ECB0E03C9336CEAA1BBB1BF2
S1130E1051E107C0AA1FBB1FA617B70710F0A61BF6
S1130E20B70B881F991F5A95A9F780959095BC0117
S1130E30CD01089597FB072E16F4009407D077FD93
S1130E4009D00E94060707FC05D03EF490958195D1
S1130E509F4F0895709561957F4F0895EE0FFF1F82
S10F0E600590F491E02D0994F894FFCF64
S1130E6C071027E80364000A000100556E6974201A
S10F0E7C5A65726F0054696D653A0000FD
S9030000FC
