:100000000C943E000C945B000C945B000C945B0021
:100010000C945B000C945B000C945B000C945B00F4
:100020000C945B000C945B000C945B000C945B00E4
:100030000C945B000C9486030C945B000C945B00A6
:100040000C9462030C945B000C945B000C945B00BA
:100050000C945B000C945B000C945B000C945B00B4
:100060000C945B000C945B000C945B000C945B00A4
:100070000C945B000C945B000C945B0011241FBE7D
:10008000CFEFD8E0DEBFCDBF11E0A0E0B1E0E4E704
:10009000FAE002C005900D92AC31B107D9F721E02A
:1000A000ACE1B1E001C01D92AD36B207E1F70E94AC
:1000B0004C040C9438050C94000098B1282F207F34
:1000C0009F70922B98B94398429A32E43A95F1F78F
:1000D00000C0429892E49A95F1F700C028B130E14F
:1000E000839FC0011124922F9F70892B88B9429A57
:1000F00082E48A95F1F700C0429892E49A95F1F76C
:1001000000C083EF91E00197F1F700C0000008956F
:1001100082E00E945D0088E20E945D0081E00E9412
:100120005D008CE00E945D00E9E2F1E029E431E04D
:1001300080E28193E217F307E1F7E3E2F1E0108256
:1001400011821282138210922701109228010895C1
:1001500080911D01982F9295969597709370E82F36
:10016000EF718E2F91119BC02E2F27709E2F9871AB
:10017000492F50E055954795559547955595479585
:10018000FA01ED5DFE4F30816FEF70E0022E02C08C
:10019000660F771F0A94E2F76323C1F091E001C074
:1001A000990F2A95EAF74091280153E604C08F5F22
:1001B000990F09F4452F911103C0409328013CC0C9
:1001C000292F2323A1F34093280136C0892F94E0DF
:1001D00060E017C02F5F3F4F2430310514F44F5FAC
:1001E00001C0462F282F30E0285F3F4F20323105D5
:1001F00014F0885101C0885F913009F402C1915018
:1002000041F0242F30E0F901ED5DFE4F5081552380
:1002100009F3E42FF0E0ED5DFE4F308140912801BD
:1002200091E005C0990F8F5F992309F4E6C0292F4B
:100230002323C1F340932801982F9F7099F0E091F8
:100240001E01E695EF71E8130DC0ADE1B1E09C91A0
:100250009F779C93F0E0E75DFE4F908190931C01A7
:10026000439A11C0EDE1F1E0908190689083982F5E
:100270009F70292F2068982F9071990F990F922BBA
:1002800090931C014398EEE1F1E0208121602083EE
:1002900028B1907F2F70922B98B991E0A0C0913037
:1002A00019F4429A92E09BC0923061F44298909186
:1002B0001D0199230CF490C090911E0190FD8EC0F9
:1002C00090E08DC0933009F083C020911D0122235E
:1002D0008CF590911E0190FF15C0AEE1B1E0292F81
:1002E0002E7F2C9398B130911C0160E1369FA001C4
:1002F00011249F70492B48B9EE0F217C2E2B2C9393
:1003000091E06DC0439AADE1B1E09C919F779C93E1
:10031000AEE1B1E09C9191609C93F0E0E75DFE4F0F
:10032000208120931C0198B1207F9F70922B98B957
:1003300091E055C090911E0190FF45C0AEE1B1E043
:100340009E7F9C9340911C0198B150E1459F900184
:1003500011249F70292B28B9AE2FB0E0A75DBE4FA6
:100360009C91941318C0AE2FA871B0E0B595A795D5
:10037000B595A795B595A795AD5DBE4F9E2F977086
:1003800021E030E002C0220F331F9A95E2F720955A
:100390009C9129232C9390911E0196959F71292F52
:1003A00030E02F5F3F4F2032310514F49F5F01C0D2
:1003B00090E0EEE1F1E09F71990F2081217C922B7A
:1003C000908391E00CC093E69093280191E007C0E0
:1003D00023E62093280103C093E001C093E0EDE100
:1003E000F1E09370292F2295220F207E9081907842
:1003F0008F71922B982B9083089593E69093280108
:100400001BCF0895813220F08AE08093280108955F
:10041000282F30E0F901E75DFE4F90819617E1F05B
:10042000F901E75DFE4F6083E82FE871F0E0F59594
:10043000E795F595E795F595E795ED5DFE4F8770A6
:1004400021E030E0A90102C0440F551F8A95E2F770
:10045000CA019081892B80830895EF92FF920F93B8
:100460001F93CF93DF93FB013097E9F0E82EF12C37
:1004700091E2E916F104BCF460816623A1F08F01DA
:10048000D82FC0E08C2F8D0F0E940202CF5F970102
:100490002C0F311D2132310534F4F801EC0FF11D20
:1004A00060816111EFCFDF91CF911F910F91FF908C
:1004B000EF9008957F928F929F92AF92BF92CF92CA
:1004C000DF92EF92FF920F931F93CF93DF9300D0B1
:1004D00000D000D0CDB7DEB7082FCB019E012F5F33
:1004E0003F4F4901B9010E94B802782EA82EB12CC5
:1004F000650135E0C31AD108C80CD91C740110E09D
:10050000A818B9089091270190FF05C0171560F44D
:10051000F70160810CC095012E0D3F1D253031057E
:100520002CF0F601608103C060E201C060E2812F1F
:10053000800F0E9402021F5FFFEFEF1AFF0A2FEFEA
:10054000C21AD20A1530F1F626960FB6F894DEBF1D
:100550000FBECDBFDF91CF911F910F91FF90EF9014
:10056000DF90CF90BF90AF909F908F907F90089535
:10057000BF92CF92DF92EF92FF920F931F93CF9390
:10058000DF93CDB7DEB72A970FB6F894DEBF0FBE64
:10059000CDBF7C016B018AE0E1E0F1E0DE01119664
:1005A00001900D928A95E1F78E010F5F1F4F81E058
:1005B00030E020E00F2EF0E3BF2EF02D40E0D80118
:1005C000ED91FD918D01EE16FF06A0F0C701BF0170
:1005D0000E941005D601A30FB11D80E3860F8C93F6
:1005E0006E9FC0016F9F900D1124E81AF90A3F5FBA
:1005F000842F09C0813011F4243029F4F601E30F6F
:10060000F11DB0823F5F2F5F2530C9F6F601E30F81
:10061000F11D1082832F2A960FB6F894DEBF0FBE0D
:10062000CDBFDF91CF911F910F91FF90EF90DF90A1
:10063000CF90BF90089582E084BD85BD80936E0009
:1006400089EF87BD18BC08958FEF9FEF90938900C5
:100650008093880010928B0010928A00109287007D
:10066000109286001092800088E0809381001092A2
:10067000820082E080936F00089512B88FEF81B9F5
:1006800085B914B893E098B987B98BB91AB80E94A4
:100690001B030E9424032FE382E49FE0215080404B
:1006A0009040E1F700C0000041982FE382E49FE012
:1006B000215080409040E1F700C000000E94880077
:1006C000789408951F920F920FB60F9211248F9372
:1006D0009F938091490181608093490180911F011E
:1006E000811106C09091490192609093490102C026
:1006F000873C11F08F5F01C080E080931F019F91C4
:100700008F910F900FBE0F901F9018951F920F9210
:100710000FB60F9211242F933F934F935F936F93D4
:100720007F938F939F93AF93BF93CF93EF93FF9359
:10073000C0910001C73010F52BB181E090E00C2E84
:1007400002C0880F991F0A94E2F7809582238BB923
:10075000CF5FC73098F42BB181E090E00C2E02C03F
:10076000880F991F0A94E2F7822B8BB98C2F0E9475
:10077000D703909389008093880005C0E1E8F0E0FA
:1007800080818E7F8083C0930001FF91EF91CF9194
:10079000BF91AF919F918F917F916F915F914F9199
:1007A0003F912F910F900FBE0F901F901895CF93F0
:1007B000DF93282F30E0F901EF5AFE4F9081F901C5
:1007C000E85AFE4F4081042E000C550B490F511D75
:1007D00097FD5A959EE8949FE001959FD00D1124B6
:1007E000E1E0F0E002C0EE0FFF1F8A95E2F7CF01D3
:1007F00086779927E817F90719F4D195C195D1099A
:10080000C05DDA48D901A65BBE4F8C914EE8849F4B
:10081000C001112462E370E00E942405683782E081
:10082000780714F067E772E0D901AA0FBB1FA15A3D
:10083000BE4F8D919C91AE01481B590B64177507F3
:1008400054F4E09540912201E423E0932201EB016E
:10085000C80FD91F16C0AA27BB27A61BB70B4A175C
:100860005B0754F4E09540912201E423E0932201D8
:10087000EC01C61BD70B05C080912201E82BE09349
:100880002201220F331FF901E15AFE4FD183C083A9
:10089000CE01DF91CF910895E1E5F1E09DEF9083E6
:1008A00082E081839283838314828CE08583168225
:1008B000EFE5F1E00F2EF8E54F2EF1E05F2EF02D81
:1008C000CAE4D1E04DE651E0D20120E335E780E50E
:1008D000219331931D928993E417F507C9F70E947C
:1008E0003D036BE071E080E00E942D0265E171E064
:1008F00080E10E942D02C0E0D0E00F2EF8E8CF2E5C
:10090000D12CF02D0F2EF1E8EF2EF12CF02D7724C5
:100910007A9408E511E00F2EFEEC8F2EF02D0F2EAD
:10092000F2E39F2EF02D0F2EFFE5AF2EF1E0BF2E4C
:10093000F02D642C8091490180FF07C0809149010E
:100940008E7F809349010E94A8008091490181FF18
:1009500029C0809149018D7F809349011092000147
:1009600080E00E94D703F60191838083F7018081A4
:1009700081608083589A60912001709121016F5F9E
:100980007F4F709321016093200186E10E945A02FB
:10099000D93111F0DF5F31F4809149018460809397
:1009A0004901D0E08091490182FFC4CF8091490183
:1009B0008B7F80934901C11107C0E62DF52D11925F
:1009C000EA15FB05E1F72AC0C13041F4F8011082B5
:1009D0001182128213821482158220C0C23041F427
:1009E000F80190829182928293821482158216C0BD
:1009F000C33041F4F80110821182128213821482F2
:100A000015820CC0C43049F4F80180828182828250
:100A1000838214821582C0E001C0C72DCF5F8ACFC8
:100A2000AA1BBB1B51E107C0AA1FBB1FA617B70714
:100A300010F0A61BB70B881F991F5A95A9F7809530
:100A40009095BC01CD01089597FB072E16F40094F4
:100A500007D077FD09D00E94100507FC05D03EF4B1
:100A6000909581959F4F0895709561957F4F08955A
:040A7000F894FFCF28
:100A7400071027E80364000A000100556E6974201A
:0C0A84005A65726F0054696D653A0000FD
:00000001FF
