S0100000556E69745A65726F2E73726563D4
S11300000C944C000C9469000C9469000C946900E5
S11300100C9469000C9469000C9469000C946900B8
S11300200C9469000C9469000C9469000C946900A8
S11300300C9469000C944B030C9469000C946900B3
S11300400C9427030C9469000C9469000C946900C7
S11300500C9469000C9469000C9469000C94690078
S11300600C9469000C9469000C9469000C94690068
S11300700C9469000C9469000C946900A504AC0408
S1130080B204B804C604D004DA049504E804F20403
S1130090F804FA040405A10411241FBECFEFD8E02C
S11300A0DEBFCDBF11E0A0E0B1E0E4E7FAE002C0BA
S11300B005900D92AC31B107D9F721E0ACE1B1E084
S11300C001C01D92AD36B207E1F70E940F040C94F3
S11300D038050C94000098B1282F207F9F70922B34
S11300E098B94398429AE7EEF3E03197F1F700C0EC
S11300F000004298E7EEF3E03197F1F700C000000A
S113010028B1F0E18F9FC0011124922F9F70892B99
S113011088B9429A87EE93E00197F1F700C0000096
S11301204298E7EEF3E03197F1F700C000008FE06A
S113013097E20197F1F700C00000089582E00E9461
S11301406B0088E20E946B0081E00E946B008CE0EF
S11301500E946B00E9E2F1E090E280E28E0F91935D
S11301608E13FDCF109223011092240110922501C9
S1130170109226011092270110922801089580916F
S11301801D01282F229526952370982F9F712111E8
S113019085C0782F77708871282F30E043E035953B
S11301A027954A95E1F7F901ED5DFE4F60814FEF28
S11301B050E0072E01C0440F0A94EAF7462389F061
S11301C081E001C0880F7A95EAF720912801382F41
S11301D0362321F49F5F880FD1F723E6209328016B
S11301E030C094E0622F70E0FB01ED5DFE4F408172
S11301F0411111C06330710514F42F5F01C020E078
S1130200482F50E04831510514F0885101C0885FEF
S1130210915041F7D8C03091280198E0980F21E01F
S1130220891769F0522F542321F030932801982F15
S113023008C0220F8F5F2111F3CF33E6F1CF309343
S11302402801892F8F7020911D01882391F030910E
S11302501E0136953F7193130CC02F7720931D0117
S1130260E92FF0E0E75DFE4F808180931C01439A03
S11302700CC0206820931D018068292F2071220F53
S1130280220F822B80931C01439820911E01216030
S113029020931E0128B1807F2F7040C0213019F4B3
S11302A0429A82E082C0223059F4429880911D0122
S11302B087FD7AC080911E0180FD76C080E075C004
S11302C020911E0187FF2DC020FF15C02E7F209393
S11302D01E0138B180911C0160E1869FA0011124A8
S11302E0832F8F70482B48B9217C892F880F282BA6
S11302F020931E0157C0439A80911D018F778093EC
S11303001D01216020931E01E92FF0E0E75DFE4FFF
S1130310208120931C0188B1207F8F70822B88B9A3
S113032041C020FF3CC02E7F20931E0150911C0130
S113033048B160E1569F90011124342F3F70232B64
S113034028B9E92FF0E0E75DFE4F2081521315C074
S1130350E82FE871F0E023E0F595E7952A95E1F7B9
S1130360ED5DFE4F877021E030E001C0220F8A95D9
S1130370EAF7209580812823208380911E018695A9
S11303808F718F3111F08F5F01C080E08F71880F02
S113039020911E01217C822B80931E0103C083E6E1
S11303A08093280181E001C083E0282F2295220F49
S11303B0207E30911D013078892F8F71932F922BDD
S11303C0982B90931D010895813220F08AE0809348
S11303D028010895E82FF0E0E75DFE4F908196171D
S11303E0C1F06083E82FE871F0E093E0F595E795BC
S11303F09A95E1F7ED5DFE4F877021E030E0A901A9
S113040002C0440F551F8A95E2F7CA019081892BD7
S113041080830895EF92FF920F931F93CF93DF93FE
S113042061157105C1F08B01D82FC0E0E82EF12CC5
S11304302C2F30E0C701820F931F819764F4F801D9
S1130440E20FF31F6081662331F08C2F8D0F0E9421
S1130450E401CF5FEDCFDF91CF911F910F91FF901A
S1130460EF9008958F929F92BF92CF92DF92EF9276
S1130470FF920F931F93CF93DF9300D000D000D04F
S1130480CDB7DEB7B82ECB01BE016F5F7F4F0E94A0
S11304908602E82E8E010F5F1F4FF12C282F30E0CB
S11304A04901801A910A690185E0C81AD10880912E
S11304B0270180FF04C0FE1460F4F80108C0C401E1
S11304C0800F911F05972CF0F801EC0DFD1D608144
S11304D001C060E28F2D8B0D0E94E401F3940F5F45
S11304E01F4FF5E0FF12E3CF26960FB6F894DEBF58
S11304F00FBECDBFDF91CF911F910F91FF90EF9071
S1130500DF90CF90BF909F908F900895CF92DF920D
S1130510EF92FF920F931F93CF93DF93CDB7DEB784
S11305202A970FB6F894DEBF0FBECDBF7C018B01B6
S11305308AE0E1E0F1E0DE01119601900D928A95E6
S1130540E1F7FE01319681E020E030E040E3C19024
S1130550D190EC14FD04A0F0C701B6010E940A0575
S1130560D801A20FB11D80E3860F8C936C9DC0014E
S11305706D9D900D1124E81AF90A2F5F80E009C0DF
S1130580813011F4343029F4D801A20FB11D4C93F9
S11305902F5F3F5F3530D9F6F801E20FF11D10826D
S11305A0822F2A960FB6F894DEBF0FBECDBFDF911F
S11305B0CF911F910F91FF90EF90DF90CF9008950E
S11305C082E084BD85BD80936E0089EF87BD18BC31
S11305D008958FEF9FEF9093890080938800109285
S11305E08B0010928A00109287001092860010925D
S11305F0800088E0809381001092820082E08093E2
S11306006F00089512B88FEF81B985B914B893E0DB
S113061098B987B98BB91AB80E94E0020E94E9021E
S11306202FE382E49FE0215080409040E1F700C036
S1130630000041982FE382E49FE0215080409040E5
S1130640E1F700C000000E949E00789408951F9274
S11306500F920FB60F9211248F939F9380914901AB
S113066081608093490180911F01811106C090919E
S1130670490192609093490102C0873C11F08F5F59
S113068001C080E080931F019F918F910F900FBE56
S11306900F901F9018951F920F920FB60F9211246E
S11306A02F933F934F935F936F937F938F939F9376
S11306B0AF93BF93CF93EF93FF93C0910001C730E3
S11306C000F532B181E090E0AC010C2E01C0440F82
S11306D00A94EAF7242F2095232322B9CF5FC73049
S11306E081F022B10C2E01C0880F0A94EAF7822B04
S11306F082B98C2F0E949A0390938900809388007A
S113070005C0809181008E7F80938100C093000199
S1130710FF91EF91CF91BF91AF919F918F917F9175
S11307206F915F914F913F912F910F900FBE0F905A
S11307301F9018950F931F93CF93DF93E82FF0E04A
S1130740DF01AF5ABE4F9C91DF01A85ABE4F2C91D6
S1130750022E000C330B290F311D97FD3A959EE8AC
S1130760929FE001939FD00D112421E030E002C05C
S1130770220F331F8A95E2F7C901867799278217DA
S1130780930719F4D195C195D109C05DDA48DF0109
S1130790A65BBE4F8C914EE8849FC001112462E396
S11307A070E00E941E05683782E0780714F067E75E
S11307B072E0AF01440F551FFA01E15AFE4F019058
S11307C0F081E02DDE01AE1BBF0B909122016A1770
S11307D07B0744F42095292320932201EB01CE0FBB
S11307E0DF1F12C000271127061B170BA017B10724
S11307F044F42095292320932201EF01C61BD70B33
S113080003C0292B20932201FA01E15AFE4FD18320
S1130810C083CE01DF91CF911F910F9108958EE097
S11308208093510188E18093520184E080935301C5
S11308308BEF80935401109255018CE08093560104
S113084010925701CFE5D1E0AAE4B1E0E8E5F1E088
S113085020E335E780E547E0D42EDE0E2993399373
S113086011928D93DE12FACF0E9402036BE071E0C5
S113087080E00E940A0265E171E080E10E940A02C0
S1130880C0E010E084ECF82E0CE39AE0E92ED8E204
S11308908091490180FF07C0809149018E7F809338
S11308A049010E94BF008091490181FF2BC08091C2
S11308B049018D7F809349011092000180E00E94DC
S11308C09A039093890080938800809181008160CD
S11308D080938100109A60912001709121016F5FD3
S11308E07F4F709321016093200186E10E943202C0
S11308F0143111F01F5F31F48091490184608093B9
S1130900490110E08091490182FFC2CF80914901E1
S11309108B7F809349018C2F90E08E30910598F461
S1130920FC01E25CFF4F0C943205109258011092C6
S1130930590110925A0110925B0110925C011092BD
S11309405D01C8E0A5CFCFEFA3CFE8E5F1E01192B8
S1130950DE12FDCFC1E09CCF00935C01F0925D01FB
S1130960C2E096CFF0925C0100935D01C3E090CFAA
S113097010925C0110925D01D0935801D0935901FB
S1130980D0935A01D0935B01C4E082CF10925801F6
S11309901092590110925A0110925B01C5E078CF70
S11309A0D0935801D0935901D0935A01D0935B014D
S11309B0C6E06ECF10925C0110925D011092580156
S11309C01092590110925A0110925B01C7E060CF56
S11309D0D0935801E0925901E0925A01D0935B01FF
S11309E0C9E056CF00935C01F0925D01CAE050CF9C
S11309F0CBE04ECFE0925801D0935901D0935A01E5
S1130A00E0925B01CCE044CFF0925C0100935D0185
S1130A10CDE03ECFAA1BBB1B51E107C0AA1FBB1FE1
S1130A20A617B70710F0A61BB70B881F991F5A9576
S1130A30A9F780959095BC01CD01089597FB072EE9
S1130A4016F4009407D077FD09D00E940A0507FC2C
S1130A5005D03EF4909581959F4F089570956195CA
S1130A607F4F0895EE0FFF1F0590F491E02D099438
S1070A70F894FFCF24
S1130A74071027E80364000A000100556E69742016
S10F0A845A65726F0054696D653A0000F9
S9030000FC
